:0400000007EF00F016
:0A0008007B82D2ED0FF051EF15F0EE
:10100000003738392F3435362A3132332D23303DED
:051010002B2569000022
:101016004650800B4F6E46504624516E45AE16EF35
:1010260008F018EF08F019EF08F051805150D8B4C5
:101036001FEF08F021EF08F036EF08F05128D8A48A
:1010460027EF08F029EF08F031EF08F0000E436EA5
:10105600000E446E000E456E000E466E458E000E66
:10106600466E3EEF08F0000E436E000E446E000E14
:10107600456E000E466E4A50800B506E4F5050180B
:10108600D8B448EF08F04AEF08F04BEF08F04F8C61
:101096004A504A24506E49AE53EF08F055EF08F017
:1010A60056EF08F050805050D8B45CEF08F05EEF71
:1010B60008F073EF08F05028D8A464EF08F066EF44
:1010C60008F06EEF08F0000E476E000E486E000E38
:1010D600496E000E4A6E498E000E4A6E7BEF08F08E
:1010E600000E476E000E486E000E496E000E4A6EE8
:1010F6005150505CD8B082EF08F084EF08F0ABEFA7
:1011060008F04FAC89EF08F08BEF08F08DEF08F090
:10111600800E4F1A51C052F050C051F052C050F0DC
:1011260043C052F047C043F052C047F044C052F0AB
:1011360048C044F052C048F045C052F049C045F09E
:1011460052C049F046C052F04AC046F052C04AF07A
:10115600000E526E515050C04BF04C6A4B5E000E62
:101166004C5A4CBEC0EF08F04C5009E11A0E4B5CCD
:10117600D8A0C0EF08F0C2EF08F0F9EF08F043502E
:10118600441045104610D8A4CBEF08F0CEEF08F077
:10119600010ECFEF08F0000E526E000E436E000EE9
:1011A600446E000E456E000E466E50C051F002EFC2
:1011B60009F052A0E1EF08F0E3EF08F0E9EF08F0DC
:1011C600D89052300109526EEBEF08F0D8905232A7
:1011D60043A0F0EF08F0F2EF08F0F3EF08F0528EBC
:1011E60046344632453244324332512A5050515CDD
:1011F600D8A000EF09F002EF09F0DCEF08F04FBCD1
:1012060007EF09F009EF09F049EF09F05150D8A4AA
:101216000FEF09F011EF09F01BEF09F0000E436E16
:10122600000E446E000E456E000E466E6AEF0AF022
:101236004750432648504422495045224A504622A8
:1012460046A028EF09F02AEF09F0D6EF09F052A0E0
:101256002FEF09F031EF09F037EF09F0D89052304F
:101266000109526E39EF09F0D890523243A03EEF91
:1012760009F040EF09F041EF09F0528E463446324C
:10128600453244324332512AD6EF09F04750435C87
:1012960048504458495045584650800A4B6E4A506B
:1012A600800A4B58D8B05AEF09F05CEF09F087EF87
:1012B60009F04350475C4B6E445048584C6E4550BD
:1012C60049584D6E46504A584E6EFF0E4B24436E9B
:1012D600FF0E4C20446EFF0E4D20456EFF0E4E2035
:1012E600466E800E4F1A526C5250D8A47DEF09F00C
:1012F6007FEF09F08FEF09F0010E4326000E44221E
:10130600452246228FEF09F04750435E4850445A23
:101316004950455A4A50465A4350441045104610C3
:10132600D8A498EF09F09AEF09F0CFEF09F05250E0
:10133600D8A4A0EF09F0A2EF09F0CFEF09F0000E54
:10134600436E000E446E000E456E000E466E6AEF4A
:101356000AF0D890433644364536463652AEB6EF96
:1013660009F0B8EF09F0B9EF09F0438052A0BEEFDB
:1013760009F0C0EF09F0C4EF09F0D8805236C6EF85
:1013860009F0D89052365150D8B4CCEF09F0CEEFD0
:1013960009F0CFEF09F0510645AED4EF09F0D6EFCC
:1013A60009F0ACEF09F0000E506E52AEDDEF09F019
:1013B600DFEF09F0F7EF09F052C04BF07F0E4B1646
:1013C600D8B4E8EF09F0EAEF09F0EEEF09F0010E04
:1013D600506EF7EF09F043A0F3EF09F0F5EF09F0CF
:1013E600F7EF09F0EAEF09F05050D8B4FDEF09F035
:1013F600FFEF09F02AEF0AF0010E4326000E442201
:101406004522462246A00AEF0AF00CEF0AF02AEF20
:101416000AF043C04BF044C04CF045C04DF046C006
:101426004EF04E344E324D324C324B324BC043F0BE
:101436004CC044F04DC045F04EC046F05128D8B4DB
:1014460027EF0AF029EF0AF02AEF0AF0512A51286D
:10145600D8B430EF0AF032EF0AF03AEF0AF0515002
:10146600D8A438EF0AF03AEF0AF04CEF0AF0000E73
:10147600436E000E446E000E456E000E466E5150D1
:10148600D8A448EF0AF04AEF0AF04CEF0AF0000E33
:101496004F6E51A051EF0AF053EF0AF056EF0AF0E3
:1014A600458E57EF0AF0459ED8905130466E4FAEA6
:1014B6005FEF0AF061EF0AF062EF0AF0468E43C072
:1014C60043F044C044F045C045F046C046F0120023
:1014D6002D50800B366E2D502D243C6E2CAE76EFA3
:1014E6000AF078EF0AF079EF0AF03C803C50D8B465
:1014F6007FEF0AF081EF0AF094EF0AF03C28D8A4B7
:1015060087EF0AF089EF0AF091EF0AF0000E2A6ED3
:10151600000E2B6E000E2C6E000E2D6E2C8E9CEF88
:101526000AF0000E2A6E000E2B6E000E2C6E000EB8
:101536002D6E3150800B361A31503124376E30AE55
:10154600A7EF0AF0A9EF0AF0AAEF0AF037803750A2
:10155600D8B4B0EF0AF0B2EF0AF0C5EF0AF03728B8
:10156600D8A4B8EF0AF0BAEF0AF0C2EF0AF0000EFC
:101576002E6E000E2F6E000E306E000E316E308E07
:10158600CDEF0AF0000E2E6E000E2F6E000E306E9E
:10159600000E316E3750D8B4D3EF0AF0D5EF0AF00B
:1015A600DDEF0AF03C50D8A4DBEF0AF0DDEF0AF0DD
:1015B600E7EF0AF0000E2A6E000E2B6E000E2C6E60
:1015C600000E2D6E7FEF0CF030502A02F3CF41F063
:1015D600F4CF42F04150386E396A3A6A3B6A42505B
:1015E6003D6E3E6A3F6A406A2F502B02F3CF41F0B0
:1015F600F4CF42F041503826000E39223A223B22DF
:1016060042503D26000E3E223F2240222E502C0202
:10161600F3CF41F0F4CF42F041503826000E392284
:101626003A223B2242503D26000E3E223F224022D5
:101636003AC03BF039C03AF038C039F0386A2E501B
:101646002B02F3CF41F0F4CF42F0415038264250FE
:101656003922000E3A22000E3B222F502A02F3CFE7
:1016660041F0F4CF42F04150382642503922000E64
:101676003A22000E3B223AC03BF039C03AF038C05D
:1016860039F0386A2E502A02F3CF41F0F4CF42F0F7
:101696004150382642503922000E3A22000E3B2293
:1016A60030502B02F3CF41F0F4CF42F041503D26AB
:1016B60042503E22000E3F22000E40222F502C02A6
:1016C600F3CF41F0F4CF42F041503D2642503E2246
:1016D600000E3F22000E402230502C02F3CF41F084
:1016E600F4CF42F04150326E4250336E346A356A5E
:1016F60034C035F033C034F032C033F0326A325081
:101706003D2633503E2234503F223550402238C0C9
:1017160032F039C033F03AC034F03BC035F0190E20
:101726009AEF0BF0D8903532343233323232E82E1B
:1017360095EF0BF032503D2633503E2234503F2277
:10174600355040223AC03BF039C03AF038C039F043
:10175600386A37503CC032F0336A3226000E3322E4
:10176600820E3224416EFF0E3320426ED0EF0BF014
:10177600D8903D363E363F3640363BAEC5EF0BF091
:10178600C7EF0BF0C8EF0BF03D80D89038363936EE
:101796003A363B364106D8A042063FAED5EF0BF0AF
:1017A600D7EF0BF0BBEF0BF0000E376E3BAEDEEF64
:1017B6000BF0E0EF0BF004EF0CF0FF0E3814326E76
:1017C600FF0E3914336EFF0E3A14346E7F0E3B143F
:1017D600356E3250331034103510D8B4F5EF0BF0A7
:1017E600F7EF0BF0FBEF0BF0010E376E04EF0CF08A
:1017F6003DA000EF0CF002EF0CF004EF0CF0F7EF59
:101806000BF03750D8B40AEF0CF00CEF0CF030EFB9
:101816000CF0010E3D26000E3E223F22402240A043
:1018260017EF0CF019EF0CF030EF0CF03DC032F072
:101836003EC033F03FC034F040C035F03534353269
:1018460034323332323232C03DF033C03EF034C02F
:101856003FF035C040F0414A422A42BE3BEF0CF011
:10186600425008E14128D8A03BEF0CF03DEF0CF0C8
:1018760047EF0CF0000E3D6E000E3E6E800E3F6E82
:101886007F0E406E75EF0CF042BE54EF0CF04250E6
:1018960006E14104D8B052EF0CF054EF0CF060EFC3
:1018A6000CF0000E3D6E000E3E6E000E3F6E000EFA
:1018B600406E000E366E75EF0CF041C03CF0FF0E28
:1018C6003D16FF0E3E167F0E3F16000E40163CA03C
:1018D6006FEF0CF071EF0CF072EF0CF03F8ED890BA
:1018E6003C30406E365040123DC02AF03EC02BF0D0
:1018F6003FC02CF040C02DF012001450800B216E1A
:1019060014501424286E13AE8BEF0CF08DEF0CF0F0
:101916008EEF0CF028802850D8B494EF0CF096EF98
:101926000CF0ABEF0CF02828D8A49CEF0CF09EEF3F
:101936000CF0A6EF0CF0000E116E000E126E000EEB
:10194600136E000E146E138E000E146EB3EF0CF0B1
:10195600000E116E000E126E000E136E000E146E47
:101966001850800B211A18501824296E17AEBEEF96
:101976000CF0C0EF0CF0C1EF0CF029802950D8B460
:10198600C7EF0CF0C9EF0CF0DEEF0CF02928D8A455
:10199600CFEF0CF0D1EF0CF0D9EF0CF0000E156E76
:1019A600000E166E000E176E000E186E178E000EC5
:1019B600186EE6EF0CF0000E156E000E166E000E99
:1019C600176E000E186E1550161017101810D8A4A2
:1019D600EFEF0CF0F1EF0CF009EF0DF0000E116EC9
:1019E600000E126E000E136E000E146E800E131291
:1019F6007F0E14122150141211C011F012C012F0F1
:101A060013C013F014C014F04CEF0EF02850D8A4F5
:101A16000FEF0DF011EF0DF01BEF0DF0000E116E34
:101A2600000E126E000E136E000E146E4CEF0EF0CA
:101A3600295028C019F01A6A195E000E1A5A7F0E2C
:101A46001924226E000E1A20236E11C01DF012C03A
:101A56001EF013C01FF014C020F0000E116E000E11
:101A6600126E000E136E000E146E000E246E000E23
:101A7600256E000E266E000E276E000E296E7CEF78
:101A86000DF02950D8B44AEF0DF04CEF0DF063EF8E
:101A96000DF0D8901D361E361F362036D8901136DA
:101AA60012361336143627AE5BEF0DF05DEF0DF0F0
:101AB6005EEF0DF01180D89024362536263627366F
:101AC60015501D5C16501E5817501F581850205898
:101AD600D8A070EF0DF072EF0DF07BEF0DF0278CB4
:101AE60015501D5E16501E5A17501F5A1850205A70
:101AF600292A190E296482EF0DF084EF0DF044EFC8
:101B06000DF01D501E101F102010D8B48DEF0DF0D3
:101B16008FEF0DF0A7EF0DF02480A7EF0DF0D89012
:101B2600113612361336143627AE9CEF0DF09EEFA3
:101B36000DF09FEF0DF01180D8902436253626360D
:101B460027362206D8A0230613AEACEF0DF0AEEF73
:101B56000DF092EF0DF0000E296E27AEB5EF0DF0E9
:101B6600B7EF0DF0DBEF0DF0FF0E2414196EFF0E2C
:101B760025141A6EFF0E26141B6E7F0E27141C6E7C
:101B860019501A101B101C10D8B4CCEF0DF0CEEF64
:101B96000DF0D2EF0DF0010E296EDBEF0DF011A066
:101BA600D7EF0DF0D9EF0DF0DBEF0DF0CEEF0DF026
:101BB6002950D8B4E1EF0DF0E3EF0DF007EF0EF08A
:101BC600010E1126000E12221322142214A0EEEF8B
:101BD6000DF0F0EF0DF007EF0EF011C019F012C086
:101BE6001AF013C01BF014C01CF01C341C321B323C
:101BF6001A32193219C011F01AC012F01BC013F0B4
:101C06001CC014F0224A232A23BE12EF0EF02350E2
:101C160008E12228D8A012EF0EF014EF0EF01FEF05
:101C26000EF0000E236E2268000E116E000E126E6C
:101C3600000E136E000E146E23BE2CEF0EF0235012
:101C460006E12204D8B02AEF0EF02CEF0EF03AEFA0
:101C56000EF0000E236E000E226E000E116E000EA8
:101C6600126E000E136E000E146E000E216E22C050
:101C760028F028A041EF0EF043EF0EF046EF0EF0ED
:101C8600138E47EF0EF0139ED8902830146EFDEF9A
:101C96000CF01200010E0001F86F5D505E10D8A422
:101CA60057EF0EF059EF0EF05DEF0EF0000EF86FE5
:101CB600CFEF0FF0F00EBD16020E5D24036E000E80
:101CC6005E20046EA3EC11F05DC0D9FF5EC0DAFFA2
:101CD600DF50D8A471EF0EF073EF0EF024EF0FF083
:101CE600BD50F00B0C09BD6E000E2E6E000E2F6E51
:101CF600800E306E400E316E20EE06F05D50D92615
:101D06005E50DA22DECF5FF0DDCF60F05FC003F019
:101D160060C004F0056A066A000EC9EC10F003C044
:101D26002AF004C02BF005C02CF006C02DF06BEC99
:101D36000AF02AC0F0F02BC0F1F02CC0F2F02DC052
:101D4600F3F020EE08F05D50D9265E50DA22DF501F
:101D56000F0B5F6E5F50036E046A056A066A010E1A
:101D6600C9EC10F003C02EF004C02FF005C030F00F
:101D760006C031F0F0C02AF0F1C02BF0F2C02CF012
:101D8600F3C02DF06BEC0AF02AC0F4F02BC0F5F08E
:101D96002CC0F6F02DC0F7F0000E476E000E486E10
:101DA600800E496EBF0E4A6E20EE08F05D50D926B1
:101DB6005E50DA22DF38030B5F6E5F50036E046AF3
:101DC600056A066A010EC9EC10F003C02EF004C0C5
:101DD6002FF005C030F006C031F0F4C02AF0F5C08F
:101DE6002BF0F6C02CF0F7C02DF06BEC0AF02AC0F1
:101DF60015F02BC016F02CC017F02DC018F0000EF1
:101E0600116E240E126E740E136E4A0E146E80EC52
:101E16000CF011C043F012C044F013C045F014C0DA
:101E260046F00BEC08F043C053F044C054F045C0F4
:101E360055F046C056F064EC13F05350CB6EC1EF2C
:101E46000FF05DC0D9FF5EC0DAFFDE04D8A42EEF26
:101E56000FF030EF0FF06DEF0FF04AEF0FF0BD50BF
:101E6600F00B0409BD6EC1EF0FF0BD50F00B050974
:101E7600BD6EC1EF0FF0BD50F00B0609BD6EC1EF90
:101E86000FF0BD50F00B0709BD6EC1EF0FF020EE4D
:101E960001F05D50D9265E50DA22DF505F6E606A2F
:101EA6006050000AD8B45AEF0FF0C1EF0FF05F5040
:101EB600040AD8B432EF0FF0010AD8B438EF0FF0A5
:101EC600030AD8B43EEF0FF0010AD8B444EF0FF07E
:101ED600C1EF0FF05DC0D9FF5EC0DAFF020EDE185B
:101EE600D8A478EF0FF07AEF0FF0C1EF0FF09AEF6A
:101EF6000FF0BD50F00B0809BD6EC1EF0FF0BD50DD
:101F0600F00B0909BD6EC1EF0FF0BD50F00B0209D1
:101F1600BD6EC1EF0FF0BD50F00B0A09BD6EC1EFEB
:101F26000FF0BD50F00B0B09BD6EC1EF0FF020EEA8
:101F360001F05D50D9265E50DA22DF505F6E606A8E
:101F46006050000AD8B4AAEF0FF0C1EF0FF05F504F
:101F5600020AD8B488EF0FF00A0AD8B47CEF0FF063
:101F6600010AD8B482EF0FF0030AD8B48EEF0FF04F
:101F7600010AD8B494EF0FF0C1EF0FF09D849E9440
:101F860020EE03F05D50D9265E50DA22DECFE7F070
:101F9600DDCFE8F0F28EF28C0001F8511200060057
:101FA600FACF01F0FBCF02F0F2A8DCEF0FF0DEEF84
:101FB6000FF0E7EF0FF0F2A2E3EF0FF0E5EF0FF00F
:101FC600E7EF0FF073EC16F0F0A6ECEF0FF0EEEF84
:101FD6000FF0F7EF0FF0F0A0F3EF0FF0F5EF0FF0C3
:101FE600F7EF0FF071EC16F0F0A8FCEF0FF0FEEF34
:101FF6000FF007EF10F0F0A203EF10F005EF10F06E
:1020060007EF10F06FEC16F0F2A60CEF10F00EEFE3
:1020160010F01EEF10F0F2A013EF10F015EF10F015
:102026001EEF10F081A81AEF10F01CEF10F01EEF53
:1020360010F06DEC16F0F2A623EF10F025EF10F07D
:1020460035EF10F0F2A02AEF10F02CEF10F035EF7C
:1020560010F081AA31EF10F033EF10F035EF10F0E9
:102066006BEC16F0F2A63AEF10F03CEF10F04CEFE6
:1020760010F0F2A041EF10F043EF10F04CEF10F02B
:1020860081AC48EF10F04AEF10F04CEF10F069EC1D
:1020960016F0F2A651EF10F053EF10F063EF10F0C8
:1020A600F2A058EF10F05AEF10F063EF10F081AE87
:1020B6005FEF10F061EF10F063EF10F067EC16F0D1
:1020C6009DAC68EF10F06AEF10F073EF10F09EAC65
:1020D6006FEF10F071EF10F073EF10F077EC16F071
:1020E600F2AA78EF10F07AEF10F083EF10F0F2A476
:1020F6007FEF10F081EF10F083EF10F0FEEC15F09B
:102106009DA088EF10F08AEF10F093EF10F09EA0DC
:102116008FEF10F091EF10F093EF10F0E2EC15F066
:102126009DA298EF10F09AEF10F0A3EF10F09EA288
:102136009FEF10F0A1EF10F0A3EF10F05FEC16F098
:10214600A0A2A8EF10F0AAEF10F0B3EF10F0A1A232
:10215600AFEF10F0B1EF10F0B3EF10F0C6EC15F0E2
:102166009DA4B8EF10F0BAEF10F0C3EF10F09EA4E4
:10217600BFEF10F0C1EF10F0C3EF10F075EC16F0E2
:1021860002C0FBFF01C0FAFF7B9211000B6E0B50E1
:10219600D8B4D0EF10F0D2EF10F0F4EF10F006BE86
:1021A600D9EF10F0D7EF10F0F4EF10F003C007F0FE
:1021B60004C008F005C009F006C00AF0071E081E94
:1021C600091E0A1E072A000E082209220A2207C033
:1021D6000DF008C00EF009C00FF00AC010F0FCEFB9
:1021E60010F003C00DF004C00EF005C00FF006C0DD
:1021F60010F00350041005100610D8A405EF11F0D6
:1022060007EF11F011EF11F0000E036E000E046ED1
:10221600000E056E000E066EA2EF11F0960E0C6E05
:102226001BEF11F00C2AD89010320F320E320D32FD
:10223600000E0D14076E000E0E14086E000E0F141D
:10224600096EFE0E10140A6E0750081009100A10C7
:10225600D8A430EF11F032EF11F015EF11F040EF86
:1022660011F00C2A010E0D26000E0E220F2210224E
:10227600D89010320F320E320D32000E0D14076E4A
:10228600000E0E14086E000E0F14096EFF0E1014C9
:102296000A6E0750081009100A10D8A455EF11F05D
:1022A60057EF11F034EF11F05FEF11F00C06D890F4
:1022B6000D360E360F3610360FBE64EF11F066EF90
:1022C60011F06EEF11F0020E0C606CEF11F06EEF74
:1022D60011F059EF11F00CB073EF11F075EF11F02A
:1022E60076EF11F00F9ED8900C320CC007F0086AFA
:1022F600096A0A6A07C00AF0096A086A076A075083
:102306000D1208500E1209500F120A5010120B50DF
:10231600D8B490EF11F092EF11F09AEF11F006BEDB
:1023260099EF11F097EF11F09AEF11F0108E0DC0A2
:1023360003F00EC004F00FC005F010C006F0120046
:10234600010E0B6E03500410D8B4ACEF11F0AEEFD3
:1023560011F0CEEF11F003C0D9FF04C0DAFFDF5051
:10236600070B056E050E0560BBEF11F0BDEF11F012
:10237600CEEF11F003C0D9FF04C0DAFFDF30E83238
:10238600E832070B056E070E0564CCEF11F0CEEFB1
:1023960011F031EF12F0000E0B6E52EF12F003C087
:1023A600D9FF04C0DAFFDF30E832E832070B056EEA
:1023B600010E066E052AE2EF11F0D8900636052EBC
:1023C600E0EF11F00650FF0A076E03C0D9FF04C004
:1023D600DAFFDF50070B086E0850020D940EF32447
:1023E600D96E000EF420DA6EDECF09F0DDCF0AF0EA
:1023F60009C0D9FF0AC0DAFF0750DF1652EF12F004
:1024060003C0D9FF04C0DAFFDF30E832E832070B39
:10241600056E010E066E052A13EF12F0D8900636E9
:10242600052E11EF12F003C0D9FF04C0DAFFDF500A
:10243600070B076E0750020D940EF324D96E000E9B
:10244600F420DA6EDECF08F0DDCF09F008C0D9FF40
:1024560009C0DAFF0650DF1252EF12F003C0D9FFAF
:1024660004C0DAFFDFBC3AEF12F03DEF12F0010EC6
:102476003EEF12F0000E056E066A0650000AD8B44A
:1024860047EF12F0CEEF11F00550000AD8B4D2EFA4
:1024960011F0010AD8B403EF12F0CEEF11F00B5091
:1024A600120052EC16F0C10E066E000E076E53ECCB
:1024B60014F00001B76FC10E036E000E046E2EEC11
:1024C60016F00001B76FB80E5D6E000E5E6E4DEC35
:1024D6000EF00001B76FEB0E036E000E046E03ECF8
:1024E60015F00001B76F640EE0EC12F00001B76F53
:1024F60059EC16F00001B76FC10E036E000E046EA4
:10250600780E056E000E066EA3EC15F07804D8A4BE
:102516008FEF12F091EF12F0A1EF12F0C10E036EE1
:10252600000E046E760E056E000E066EB3EC14F009
:10253600C10E036E000E046E2EEC16F0775007E106
:102546002A0E765CD8B0AAEF12F0ACEF12F0B1EF1B
:1025560012F0000EE0EC12F07FEF12F0775009E176
:102566003C0E765CD8A0BAEF12F0BCEF12F0CCEFBE
:1025760012F0775007E1510E765CD8B0C5EF12F035
:10258600C7EF12F0CCEF12F0320EE0EC12F07FEF54
:1025960012F0775009E15A0E765CD8A0D5EF12F00A
:1025A600D7EF12F0DCEF12F0640EE0EC12F07FEFE2
:1025B60012F07FEF12F007EF00F0636E000E656E0B
:1025C600000E646E000E156E000E166EC80E176EA7
:1025D600420E186E6350036E046A056A066A010E9F
:1025E600C9EC10F003C011F004C012F005C013F0DE
:1025F60006C014F080EC0CF011C02EF012C02FF0C3
:1026060013C030F014C031F0CB505D6E5E6A010E1F
:102616005D26000E5E225DC003F05EC004F0000E73
:1026260004BEFF0E056E066E010EC9EC10F003C067
:102636002AF004C02BF005C02CF006C02DF06BEC80
:102646000AF02AC05FF02BC060F02CC061F02DC0EC
:1026560062F0000E2E6E000E2F6E800E306E400E53
:10266600316E5FC02AF060C02BF061C02CF062C0F2
:102676002DF06BEC0AF02AC053F02BC054F02CC09E
:1026860055F02DC056F064EC13F053C064F054C0FE
:1026960065F064C05DF0030E5D165D3ABD505D18D1
:1026A600CF0B5D18BD6E64C05DF065C05EF0D8905E
:1026B6005E325D32D8905E325D325D50BE6E010E86
:1026C6001200553456345C6E5C50D8A46DEF13F08E
:1026D6006FEF13F079EF13F0000E536E000E546E89
:1026E600000E556E000E566EE6EF13F053C057F00F
:1026F60054C058F055C059F056C05AF0200E89EF14
:1027060013F0D8905A32593258325732E82E84EFA5
:1027160013F057505B6E558EFF0E5316FF0E541670
:10272600FF0E5516000E5616960E5C5E5CBEA0EFAA
:1027360013F09EEF13F0B6EF13F05C50800A970F7C
:10274600D8B0A8EF13F0AAEF13F0ACEF13F06FEFC9
:1027560013F0D89056325532543253325C3EACEFB9
:1027660013F0CEEF13F01F0E5C64BCEF13F0BEEF58
:1027760013F0C6EF13F06FEF13F0D89053365436BC
:10278600553656365C065C50D8A4CCEF13F0CEEF27
:1027960013F0C0EF13F05B50D8B4D4EF13F0D6EFBC
:1027A60013F0DEEF13F0561E551E541E536C000E2A
:1027B60054225522562253C053F054C054F055C0EB
:1027C60055F056C056F01200056E11EF14F09280C7
:1027D60052EF14F0928252EF14F0928452EF14F0FA
:1027E600928652EF14F0928A52EF14F0968052EFCE
:1027F60014F0968252EF14F0968452EF14F09384FC
:1028060052EF14F0938652EF14F0938252EF14F0C5
:10281600938852EF14F0938052EF14F00550036E34
:10282600046A0450000AD8B41BEF14F052EF14F0F7
:102836000350000AD8B4EAEF13F0010AD8B4EDEF5A
:1028460013F0030AD8B4F0EF13F0010AD8B4F3EF8B
:1028560013F0070AD8B4F6EF13F0010AD8B4F9EF6B
:1028660013F0030AD8B4FCEF13F0010AD8B4FFEF53
:1028760013F00F0AD8B402EF14F0010AD8B405EF2A
:1028860014F0030AD8B408EF14F0010AD8B40BEF19
:1028960014F0070AD8B40EEF14F052EF14F0120039
:1028A600010E096E06500710D8A45CEF14F05EEF17
:1028B60014F062EF14F0000E096EB1EF14F0C2903E
:1028C60020EE03F00650D9260750DA22DF50086EB4
:1028D600084608460846C0500818C70B0818C06EB8
:1028E60020EE04F00650D9260750DA22DF50086E93
:1028F600C0500818F80B0818C06E20EE05F00650F8
:10290600D9260750DA22DF50086E08460846C2501C
:102916000818C30B0818C26E20EE05F00650D9261B
:102926000750DA22DF50E7EC13F09D8C9E9C06C020
:10293600D9FF07C0DAFFDECFE9F0DDCFEAF0F28E8D
:10294600F28C06C003F007C004F040EC16F006C097
:1029560003F007C004F01AEC16F0C280095012000A
:1029660003500410D8B4BAEF14F0BCEF14F0C5EF5E
:1029760014F005500610D8A4C3EF14F0C5EF14F0F8
:10298600C7EF14F002EF15F020EE06F00350D9263B
:102996000450DA22DFB2D2EF14F0D4EF14F0F0EFE5
:1029A60014F0C350C4CF07F0086A07C008F0076ADE
:1029B6000726000E0822060E096E08340832073272
:1029C600092EE0EF14F005C0D9FF06C0DAFF07C0F4
:1029D600DEFF08C0DDFF02EF15F0C350C4CF07F0DD
:1029E600086A07C008F0076A0726000E082205C015
:1029F600D9FF06C0DAFF07C0DEFF08C0DDFF120000
:102A0600010E066E03500410D8A40CEF15F00EEF5D
:102A160015F012EF15F0000E066E4FEF15F0CA9482
:102A260020EE03F00350D9260450DA22DF38030BD8
:102A3600056ECA500518FC0B0518CA6E20EE03F089
:102A46000350D9260450DA22DF500F0B056E0546D7
:102A560005460546CA500518870B0518CA6E20EEAE
:102A660004F00350D9260450DA22DF50CC6E20EE53
:102A760004F00350D9260450DA22DF50666E9D8298
:102A86009E9203C0D9FF04C0DAFFDECFCFF0DDCFC0
:102A9600D0F0F28EF28CCA8406501200FC0EF66E4E
:102AA6002A0EF76E000EF86E00EE80F010EE49F07A
:102AB6000900F5CFEEFFE550E150FAE1F20EF66EB1
:102AC6002C0EF76E000EF86E0900F5CF79F00900AE
:102AD600F5CF7AF000EEC9F0270EEE6AE806FDE1C2
:102AE60000EE66F0130EEE6AE806FDE17B907B923F
:102AF600000154EF12F0800F810F820F830F840FB5
:102B0600890F8A0F8B0F8C0F8D0F920F930F940FD7
:102B1600950F960FC62C0003DC0B0A000000000080
:102B26000BF42C00DC0B13F62C00DC0B3801000038
:0F2B360012000000204E110000000405000222D2
:102B460003500410D8B4AAEF15F0ACEF15F0B5EFAA
:102B560015F005500610D8A4B3EF15F0B5EF15F033
:102B6600B7EF15F0C5EF15F0C2A2BCEF15F0BFEF39
:102B760015F0010EC0EF15F0000E05C0D9FF06C016
:102B8600DAFFDF6E1200A1920001CC51B36ECBC00A
:102B9600B2FFCD51CE11D8B4D3EF15F0D5EF15F065
:102BA600E1EF15F002D8E1EF15F00500FA6ECD5110
:102BB600FD6ECE51FE6EFF6AFA50120012009E9014
:102BC6000001D251CF6ED1C0CEFFD351D411D8B4AB
:102BD600EFEF15F0F1EF15F0FDEF15F002D8FDEF70
:102BE60015F00500FA6ED351FD6ED451FE6EFF6AE4
:102BF600FA5012001200F2940001D851D76ED7C0D5
:102C0600D6FFD551D611D8B40BEF16F00DEF16F04E
:102C160019EF16F002D819EF16F00500FA6ED55125
:102C2600FD6ED651FE6EFF6AFA501200120020EEBB
:102C360006F00350D9260450DA22DFB025EF16F04D
:102C460027EF16F02BEF16F0C198C19A2DEF16F06C
:102C5600C188C18A1200010E056E03500410D8A463
:102C660037EF16F039EF16F03DEF16F0000E056E51
:102C76003EEF16F0C2820550120020EE06F0035019
:102C8600D9260450DA22DFB24BEF16F04DEF16F0DC
:102C960050EF16F0C09E51EF16F0C08E12007A0E5D
:102CA600036E000E046EA3EC11F01200BD50F00B83
:102CB6000C09BD6E010E12009E9266C0CCFF12007A
:102CC6000001C94BCA2B1200F2901200F2901200BA
:102CD600F2901200F2901200F0921200F0901200A0
:102CE600F29212009E9412009E9C1200121A12007A
:022CF6001200CA
:020000040020DA
:08000000FFFFFFFFFFFFFFFF00
:020000040030CA
:0E000000FF071F1FFF8185FF0FC00FE00F409D
:00000001FF
